:020000040020DA
:10000000744D0020F9352100DD352100E93521004E
:10001000F1352100F1352100F1352100000000000B
:10002000000000000000000000000000F135210089
:10003000F135210000000000F1352100F1352100EB
:10004000F1352100F1352100F1352100F135210094
:1000500000000000F1352100F1352100F1352100CB
:10006000F135210000000000000000000000000049
:100070000000000000000000F13521000000000039
:100080000000000000000000F1352100F1352100E2
:10009000F1352100F1352100F1352100F135210044
:1000A000F1352100F1352100F1352100F135210034
:1000B000F1352100F1352100F1352100F135210024
:1000C000F1352100F1352100F1352100F135210014
:1000D000F1352100000000000000000000000000D9
:1000E0000000000000000000000000000000000010
:1000F000F135210000000000F1352100F13521002B
:1001000000000000000000000000000000000000EF
:1001100000000000000000000000000000000000DF
:1001200000000000000000000000000000000000CF
:1001300000000000000000000000000000000000BF
:1001400000000000000000000000000000000000AF
:10015000000000000000000000000000000000009F
:10016000000000000000000000000000000000008F
:10017000000000000000000000000000000000007F
:10018000000000000000000000000000000000006F
:10019000000000000000000000000000000000005F
:1001A000000000000000000000000000000000004F
:1001B000000000000000000000000000000000003F
:1001C000000000000000000000000000000000002F
:1001D000000000000000000000000000000000001F
:1001E000000000000000000000000000000000000F
:1001F00000000000000000000000000000000000FF
:1002000000000000000000000000000000000000EE
:1002100000000000000000000000000000000000DE
:1002200000000000000000000000000000000000CE
:1002300000000000000000000000000000000000BE
:1002400000000000000000000000000000000000AE
:10025000000000000000000000000000000000009E
:10026000000000000000000000000000000000008E
:10027000F1352100F1352100F1352100F135210062
:10028000F1352100F1352100F135210080B500AFB5
:1002900011F046FA49F66863C0F221035B6998479A
:1002A0000FF040FD00F012F80FF050FD002318464B
:1002B00080BD00BF80B483B000AF0346FB7100BFB8
:1002C0000C37BD465DF8047B704700BF80B500AFBA
:1002D0000FF0E4FD0CF030FB0CF0A0FD0DF026F962
:1002E00010F0BAFD02F050FF00F028F848F67873DD
:1002F000C0F221031B68984705F05AF805F060FF2B
:1003000003F086FA04F070FB08F0C0FE07F0EEFB85
:1003100008F08CFF09F03EFE09F0B0FE0AF02EF85E
:100320000AF070FF0CF096F80EF05CFA012035210F
:10033000002200230FF092FE80BD00BF98B500AFF1
:1003400044F68C50C2F2000000214FF4B67218F04F
:1003500021FD44F60870C2F200000021102218F0BE
:1003600019FD44F68C53C2F20003002283F84621A3
:1003700044F68C53C2F20003012283F8652144F64F
:100380008C53C2F20003002283F8662144F68C539A
:10039000C2F200034FF4F672A3F86A2144F68C53BC
:1003A000C2F200030122C3F8242144F68C52C2F2A7
:1003B000000248F6D863C0F2210302F5A4740FCB03
:1003C00084E80F000CF010FB0346002B03D0012043
:1003D00002F06EFC02E0002002F06AFC02F0CAFCAF
:1003E00044F6F863C2F2000300229A7112F038FB5F
:1003F00040F2F940C0F2200012F07CFA40F26D5059
:10040000C0F2200012F080FA40F29560C0F22000A5
:1004100012F084FA40F27970C0F2200012F08EFAE5
:1004200044F68C53C2F20003B3F86A31184612F056
:10043000C9FA98BD80B584B000AF786015F038FB7C
:1004400044F68C53C2F200031A787B681B789A42F8
:1004500004D015F021FB4FF0FF3349E00023FB608F
:1004600044F68C53C2F20003B3F801309AB27B68B1
:10047000B3F801309BB29A420FD115F00DFB44F650
:100480008C53C2F20003B3F803309BB21A467B6868
:10049000B3F803309BB2D31A2AE044F68C53C2F26D
:1004A0000003B3F801309BB21A467B68B3F8013001
:1004B0009BB2D31A012B15D144F68C53C2F2000320
:1004C000B3F803309BB2FB607B68B3F803309BB298
:1004D000FA68D31A03F57F43FF33FB60FB680133EF
:1004E000FB6002E04FF0FF33FB6015F0D5FAFB68CC
:1004F00018461037BD4680BD80B500AF44F68C531A
:10050000C2F20003B3F86A31184612F06DFA44F6ED
:100510008C53C2F200031B7C83F00103DBB2002B7F
:1005200016D00CF061FA0346002B0ED0012002F029
:10053000BFFB02F047F905F00DFC03461A4644F6EE
:100540008C53C2F200031A8104E000F0D1F901E0FB
:1005500000F0FCFD44F60873C2F200031B685A1C4D
:1005600044F60873C2F200031A6080BD80B500AF84
:1005700044F68C53C2F2000393F82831043B142B49
:1005800068D801A252F823F0DD052000E305200021
:10059000E9052000EF052000F5052000FB052000FF
:1005A00001062000070620000D062000130620008B
:1005B00055062000190620001F06200025062000F1
:1005C0002B06200031062000370620003D062000C3
:1005D00043062000490620004F06200001F01EF8C7
:1005E0004BE001F07DF848E001F090F845E001F0C3
:1005F0009FF842E001F0D0F83FE001F049F93CE01B
:1006000001F074F939E001F087F936E001F096F96C
:1006100033E001F0EDF930E001F080FB2DE001F076
:10062000ABFB2AE001F0BEFB27E001F0CDFB24E0AC
:1006300001F0F4FB21E001F0E5FD1EE001F00EFF0A
:100640001BE001F021FF18E001F030FF15E001F0A0
:1006500061FF12E044F68C53C2F2000393F8283194
:100660001A4644F68C53C2F20003DB8809201F218E
:100670000FF008FD02F06AFC00BF44F60873C2F2F6
:1006800000035B685A1C44F60873C2F200035A6008
:1006900080BD00BF80B582B000AF786044F68C5357
:1006A000C2F200031B7C83F00103DBB2002B03D0FA
:1006B000786800F0BDF950E044F68C53C2F20003B4
:1006C00093F82831073B102B34D801A252F823F0BD
:1006D00015072000350720003507200035072000CA
:1006E0001D0720001D0720003507200035072000CA
:1006F00035072000350720002507200025072000AA
:100700003507200035072000350720003507200079
:100710002D072000786801F021F81EE0786801F0CC
:1007200049F91AE0786801F055FB16E0786801F0A5
:10073000D3FE12E044F68C53C2F2000393F8283142
:100740001A4644F68C53C2F20003DB8809202021AC
:100750000FF098FC02F0FAFB00BF44F60873C2F2F7
:1007600000039B685A1C44F60873C2F200039A60A7
:100770000837BD4680BD00BF80B582B000AF78604D
:1007800044F68C53C2F200031B7C83F00103DBB2FE
:10079000002B03D0786800F06FF950E044F68C53DA
:1007A000C2F2000393F82831083B102B34D801A281
:1007B00052F823F0F907200019082000190820003A
:1007C000190820001908200001082000190820003D
:1007D0001908200019082000190820001908200015
:1007E0000908200019082000190820001908200015
:1007F0001908200011082000786800F0E3FF1EE0CF
:10080000786801F00BF91AE0786801F01DFB16E03A
:10081000786801F095FE12E044F68C53C2F20003B2
:1008200093F828311A4644F68C53C2F20003DB8851
:10083000092021210FF026FC02F088FB00BF44F6BE
:100840000873C2F20003DB685A1C44F60873C2F254
:100850000003DA600837BD4680BD00BF80B582B0B6
:1008600000AF44F68C53C2F200031B783B7044F691
:100870008C53C2F20003B3F801309BB2A7F80130E9
:1008800044F68C53C2F20003B3F803309BB2A7F8CE
:1008900003303B460420194605220FF09BFB012341
:1008A00018460837BD4680BD80B582B000AF002332
:1008B000FB7144F68C53C2F200031B7CFB71FB1DE1
:1008C0000020194601220FF085FB01231846083746
:1008D000BD4680BD80B500AF052044F6F861C2F288
:1008E00000010F220FF076FB0123184680BD00BFE8
:1008F00080B500AF44F68C53C2F2000393F8283160
:10090000022B00D192E044F68C53C2F2000393F81C
:100910002831012B22D0012002F0C0FA12F0A6F8F3
:10092000142012F073F844F68C53C2F20003142220
:1009300083F8442112F03EF912F04EF8024644F6D4
:100940008C53C2F20003C3F85C2144F68C53C2F20C
:100950000003012283F8642112F040F944F68C531D
:10096000C2F2000393F82831012B3ED144F68C5398
:10097000C2F2000393F84731002B36D012F076F81C
:1009800044F68C53C2F2000393F84631184602F045
:100990004FFA03461A4644F68C53C2F2000383F81A
:1009A000442144F68C53C2F2000393F844311846B4
:1009B00012F02CF812F0FEF812F00EF8024644F68F
:1009C0008C53C2F20003C3F85C2144F68C53C2F28C
:1009D0000003012283F8642112F000F944F68C53DD
:1009E000C2F20003002283F8472101F06FFE44F6B3
:1009F0008C53C2F20003B3F803309BB203F00F0331
:100A0000002B04D10FF064FD0FF09CFC0EE044F6C7
:100A10008C53C2F20003B3F803309BB203F00F0310
:100A2000082B03D10FF054FD0FF042FC80BD00BF36
:100A300080B582B000AF786044F68C53C2F20003F8
:100A400093F82831012B00D012E0022002F026FAA0
:100A50000FF03EFD44F68C53C2F200037A68C3F8EF
:100A60003C2144F68C53C2F200037A68C3F840215B
:100A70000837BD4680BD00BFB0B596B002AF786004
:100A800044F68C53C2F2000393F82831022B0DD0A8
:100A900044F68C53C2F2000393F8283109201D213B
:100AA0001A4600230FF0EEFA02F050FA032002F08B
:100AB000F5F909200CF00AFA024644F68C53C2F20A
:100AC0000003C3F8302144F68C53C2F20003D3F87C
:100AD0003031002B08D109202C21002200230FF0F7
:100AE000D1FA02F033FA8AE144F68C53C2F20003E1
:100AF000D3F8303109221A7044F68C53C2F2000345
:100B0000D3F8303109225A7044F68C53C2F20003F4
:100B1000D3F8302144F68C53C2F20003D3F83031BD
:100B20008D33536044F68C53C2F20003D3F8303156
:100B3000596844F68C53C2F20003D3F8303103F104
:100B4000080244F68C53C2F20003D3F8303103F1AB
:100B5000890444F68C53C2F20003D3F8303103F118
:100B60008A0044F68C53C2F20003D3F830318B3341
:100B700000900193084611468222234612F050F855
:100B800044F68C53C2F20003D3F830311B7A012BA8
:100B900008D944F68C53C2F20003D3F830311B7AE3
:100BA000802B0CD944F68C53C2F20003D3F83031B9
:100BB0001B7A0920372100220FF064FA0CE144F679
:100BC0008C53C2F20003D3F83031184602210DF0E5
:100BD0001DF844F68C53C2F20003D3F8303193F879
:100BE0008B3083F00103DBB2002B00D0F4E044F63D
:100BF0008C53C2F20003D3F8302107F110031046E2
:100C000019460DF07BFB3B7C83F00103DBB2002B2C
:100C100000D0E1E044F68C53C2F20003D3F8303147
:100C2000BA7C83F8492044F68C53C2F20003D3F80F
:100C300030317A7E83F84A2044F68C53C2F20003A6
:100C4000D3F83031383307F13D02156854689068A5
:100C5000D1681D605C609860D960127C1A7444F69B
:100C60008C53C2F20003D3F8303193F86C30002B70
:100C70002AD044F68C53C2F200031B7C83F001039C
:100C8000DBB2002B00F0A880BB7C002B40F0A480DE
:100C900044F68C53C2F20003D3F8302107F110035D
:100CA0001046194601F026FE034683F00103DBB22D
:100CB000002B09D044F68C50C2F2000000214FF402
:100CC000B67218F067F887E044F68C53C2F200035E
:100CD000D3F830217B7C104619460CF055FF0023D9
:100CE000FB813B7C002B24D0FB7D002B21D0BB7CE7
:100CF000002B1ED104200BF0B3FE034607F11002B7
:100D00000B32104619460CF025FE0346002B10D07E
:100D100044F68C53C2F20003D3F8302107F10E03DE
:100D20001046194600F06EF80346002B01D001234F
:100D300000E00023002B00D14EE011F097FE44F6B6
:100D40008C53C2F20003D3F8604111F045FE024615
:100D500044F68C53C2F20003D3F85C31D31AE21884
:100D600044F68C53C2F20003C3F8602144F68C535E
:100D7000C2F20003D3F83021FB89DBB210461946DA
:100D80000CF002FF44F68C53C2F20003D3F840315A
:100D9000184601F003FF012001F08AFF44F68C534E
:100DA000C2F20003DB8809201B211A4600230FF042
:100DB00055F944F68C53C2F20003D3F8303118468B
:100DC00001F0B6FF44F68C53C2F200030022C3F8D0
:100DD000302102F0BBF812E044F68C53C2F200035B
:100DE000D3F8303118460CF0D9F844F68C53C2F2DF
:100DF00000030022C3F83021012002F04FF85037E1
:100E0000BD46B0BD80B586B000AF786039600023C4
:100E1000FB727B685A68FB7A13441B78FB73FB7A7E
:100E20000133DBB2FB72FB7B9AB27B685968FB7AB9
:100E30000B441B781B029BB21344BB81FB7A01332A
:100E4000DBB2FB72FB7A1A463B681A80BB891BB285
:100E5000002B09DABB89C3F30A03BB82BB8903F405
:100E6000F043DB12FB7508E0BB8903F07F03BB8214
:100E7000BB8903F4FF43DB11FB753B681A88BB8A0F
:100E800013449AB23B681A80FB7D012B40F04881E5
:100E900000237B747B685A68FB7A13441B78FB73CE
:100EA000FB7A0133DBB2FB72FB7B9AB27B68596839
:100EB000FB7A0B441B781B029BB21344BB81FB7A69
:100EC0000133DBB2FB72BB8A023BBB82BB891BB224
:100ED000002B09DABB89C3F30A037B82BB8903F4C5
:100EE000F043DB12BB7507E0BB89DBB27B82BB89B9
:100EF00003F4FE431B12BB75BB7D093B132B00F2B1
:100F0000C58001A252F823F0611020008D1020004E
:100F10008D1020008D1020008D1020008D102000DD
:100F20008D1020008D1020008D1020008D102000CD
:100F30008D1020008D1020008D1020008D102000BD
:100F40008D1020008D1020008D102000590F2000E2
:100F50009F0F2000CF0F20000BF046FD034683F0CB
:100F60000103DBB2002B19D07B685A68FB7A13446B
:100F7000184601F00DFD01237B74FB7A0533DBB2CB
:100F8000FB727B685A68FB7A13441B78184601F0A1
:100F900095FCFB7A0133DBB2FB7279E078E00BF071
:100FA00023FD034683F00103DBB2002B0ED002F0D9
:100FB000DFF8034683F00103DBB2002B06D007F114
:100FC0000B037868194604F08BF861E060E00BF0E1
:100FD0000BFD034683F00103DBB2002B3FD07B689F
:100FE0005A68FB7A13441B78184601F0B3FDFB7A6C
:100FF0000133DBB2FB7244F68C53C2F2000393F868
:101000005831002B2BD07B685A68FB7A13441B782D
:101010001A4644F68C53C2F20003A3F86A21FB7A05
:101020000133DBB2FB7244F68C53C2F20003B3F817
:101030006A319AB27B685968FB7A0B441B781B02B1
:101040009BB213439BB29AB244F68C53C2F2000394
:10105000A3F86A21FB7A0133DBB2FB7218E017E0D8
:101060000BF0C2FC034683F00103DBB2002B0CD073
:101070007B685A68FB7A13441B78184601F07CFDA4
:10108000FB7A0133DBB2FB7202E001E0002359E09E
:10109000BA8A7B8AD31ABB82BB8A002B7FF4FAAE52
:1010A0007B7C002B3BD001F0A5FC44F68C53C2F2B4
:1010B0000003DB88184604F00BFE04F04BFE0346E9
:1010C0001A4644F68C53C2F200031A8100233B7483
:1010D00015E044F68C53C2F2000393F84431A3F1B7
:1010E0000B02397C44F68C53C2F200030B4493F894
:1010F00048319A4200D105E03B7C01333B743B7C94
:101100000F2BE6D904F0A4FE03463A7CD31ADAB2D8
:1011100044F68C53C2F2000383F8452105E004E055
:101120003B6800221A8000230CE03B681B887F2B61
:1011300007D93B681B88092033211A4601230EF08A
:10114000A1FF012318461837BD4680BD80B588B081
:1011500000AF0023BB7700237B7701F0B7FA10F0D4
:10116000DBFE44F68C53C2F20003DB88002B01D176
:1011700010F0B0FE0BF038FC034683F00103DBB245
:10118000002B42D044F68C53C2F20003DA6844F6D6
:101190008C53C2F20003D3F824319A4211D944F699
:1011A0008C53C2F20003DA6844F68C53C2F2000397
:1011B000D3F82431D21A44F68C53C2F20003DA6019
:1011C00023E044F68C53C2F200030122C3F8242129
:1011D000002001F06DFD44F68C53C2F20003DB8861
:1011E00009201A211A4600230EF04CFF44F6F8633A
:1011F000C2F200039B790133DAB244F6F863C2F21B
:1012000000039A7101F0A2FE05E244F68C53C2F28B
:10121000000393F82831002B12D044F68C53C2F20D
:10122000000393F828311A4644F68C53C2F20003A7
:10123000DB8809201E210EF025FF01F087FEEAE180
:1012400044F68C53C2F200030122C3F8242144F671
:101250008C53C2F20003DA8844F68C53C2F20003C6
:101260001B899A4240F09C8004F04CFD04F0F0FD94
:101270000346184601F0DCFD03461A4644F68C533B
:10128000C2F2000383F8442104F064FD03461A46C9
:1012900044F68C53C2F200031A810BF0CDFB0346D7
:1012A000002B5DD00BF0A0FB034683F00103DBB203
:1012B000002B55D044F68C53C2F200031A8944F631
:1012C0008C53C2F20003DB889A4213D944F68C5344
:1012D000C2F200031B891A4644F68C53C2F2000383
:1012E000DB88D31A1A4644F68C53C2F20003C3F8C3
:1012F000242116E004F044FD03461A4644F68C53BC
:10130000C2F200031B891A4444F68C53C2F2000354
:10131000DB88D31A1A4644F68C53C2F20003C3F892
:10132000242144F68C53C2F20003D3F824314FF445
:10133000F67202FB03F3184611F056FB0023FB770D
:1013400004E001F0C3F9FB7F0133FB77FA7F44F639
:101350008C53C2F20003D3F82431013B9A42F0D3FC
:1013600004F0F8FC03461A4644F68C53C2F200031C
:101370001A8104F041FD03463B773B7F013B042B80
:1013800000F2388101A252F823F000BFAF13200011
:10139000B7142000AF132000E3142000151620001E
:1013A0000FF096F801F0D2FD0EF0CCFF33E10FF014
:1013B0008FF844F68C53C2F200030022C3F82C21AC
:1013C00004F05AFD0346002B26D007F10803184607
:1013D00004F026FD07F1080318460BF005FF02464E
:1013E00044F68C53C2F20003C3F82C2144F68C530C
:1013F000C2F20003D3F82C31002B0DD13B7F032B1D
:101400000AD101237B770CF003F8024644F68C5393
:10141000C2F20003C3F82C2144F68C53C2F200033D
:10142000D3F82C31002B08D13B7F012B02D101F0E6
:101430008DFDF0E00123BB773DE0042001F02EFD9F
:1014400044F68C53C2F20003D3F82C3109225A70AF
:101450007B7F002B18D03B46184601F0DDF909F0E0
:1014600021FA03461B0A9BB2DBB2013BDBB27B7164
:1014700044F68C53C2F20003D3F82C311B6E3A466B
:101480001068186092889A8044F68C53C2F2000368
:10149000D3F82C3193F84C200132D2B283F84C208F
:1014A00044F68C53C2F20003D3F83C31353318466E
:1014B00011F09AFEAFE0BB7F83F00103DBB2002B9B
:1014C00001D00FF005F80F2001F0E8FC44F68C5332
:1014D000C2F20003D3F83C313733184611F084FED2
:1014E00099E00EF0F5FF01F031FD0EF0E1FE44F65B
:1014F0008C53C2F200030322C3F824210023FB779C
:101500000FE001F0E3F804F0FDFB04F023FC0346D8
:101510001A4644F68C53C2F200031A81FB7F013352
:10152000FB77FB7F012BECD90BF086FA0346002BEF
:1015300052D00BF059FA034683F00103DBB2002BC3
:101540004AD044F68C53C2F200031A8944F68C53F5
:10155000C2F20003DB889A4214D944F68C53C2F2DB
:1015600000031B891A4644F68C53C2F20003DB8841
:10157000D31A02331A4644F68C53C2F20003C3F85E
:10158000242117E004F0FCFB03461A4644F68C5372
:10159000C2F200031B891A4444F68C53C2F20003C2
:1015A000DB88D31A02331A4644F68C53C2F2000386
:1015B000C3F824210023FB7704E001F087F8FB7FC8
:1015C0000133FB77FA7F44F68C53C2F20003D3F861
:1015D0002431033B9A42F0D344F68C53C2F2000309
:1015E000D3F824314FF4F67202FB03F3184611F0DE
:1015F000FBF910E00EF06CFF3B7F9AB244F68C537F
:10160000C2F20003DB88092018210EF04FFD01F023
:101610009DFC00E000BF2037BD4680BD80B500AF17
:10162000052001F03BFC44F68C53C2F20003D3F8D2
:101630003C317733184611F0D7FD44F68C53C2F293
:101640000003D3F82C31254819460CF0FBFA44F678
:101650008C53C2F2000393F88030002B0CD048F674
:101660007873C0F22103DB681C4898470346002BBF
:1016700002D001F06BFC2FE0184802210CF0A8FA10
:1016800044F68C53C2F2000393F84431184611F02B
:10169000BDF944F68C53C2F200039A6944F68C53A8
:1016A000C2F200031B7F1046194611F0F7F911F042
:1016B0003FFA11F091F9024644F68C53C2F200034E
:1016C000C3F85C2144F68C53C2F20003012283F874
:1016D0006421062001F0E2FB80BD00BFA04D002088
:1016E00080B500AF44F68C53C2F2000393F8283162
:1016F0001A4644F68C53C2F20003DB8809202221EB
:101700000EF0C0FC01F022FC80BD00BF80B500AF30
:10171000072001F0C3FB44F68C53C2F20003D3F858
:101720003C319833184611F05FFD11F015FA80BD79
:1017300080B500AF44F68C53C2F2000393F8283111
:101740001A4644F68C53C2F20003DB880920272195
:101750000EF098FC01F0FAFB80BD00BF80B582B0AE
:1017600000AF7860082001F099FB11F077FD44F696
:101770008C53C2F200037A68C3F83C2144F68C53C0
:10178000C2F20003D3F83C31A433184611F02CFD0B
:101790000837BD4680BD00BF80B500AF44F68C530E
:1017A000C2F2000393F828311A4644F68C53C2F271
:1017B0000003DB88092026210EF064FC01F0C6FB43
:1017C00080BD00BF90B585B000AF7860092001F002
:1017D00065FB11F043FD11F049F944F68C53C2F258
:1017E0000003D3F8604111F0F7F8024644F68C5339
:1017F000C2F20003D3F85C31D31AE21844F68C53DA
:10180000C2F20003C3F8602144F68C53C2F2000315
:101810007A68C3F83C2144F68C53C2F20003D3F833
:101820002C31383318460BF0B3FF0346002B02D09F
:101830000023FB7301E00123FB73FB7B002B0AD029
:1018400044F68C53C2F20003D3F83C317D33184682
:1018500011F0CAFC19E044F68C50C2F200000121DC
:1018600004F080FB44F68C53C2F20003D3F82C3111
:101870001846002101F03AFA44F68C53C2F20003F4
:101880000022C3F82C2101F061FB1437BD4690BD46
:1018900080B500AF0A2001F001FB44F68C53C2F280
:1018A0000003D3F83C318733184611F09DFC44F611
:1018B0008C53C2F2000393F84431184611F0A6F895
:1018C00011F078F911F088F8024644F68C53C2F210
:1018D0000003C3F85C2144F68C53C2F200030122DA
:1018E00083F864210B2001F0D9FA80BD80B500AFE8
:1018F00044F68C53C2F2000393F828311A4644F69A
:101900008C53C2F20003DB88092023210EF0BAFBBE
:1019100001F01CFB80BD00BF80B500AF0C2001F0C2
:10192000BDFA11F05BF944F68C53C2F20003D3F810
:101930003C31A733184611F057FC80BD80B500AF8D
:1019400044F68C50C2F20000002104F00BFB44F678
:101950008C53C2F20003D3F82C3193F84B20013A98
:10196000D2B283F84B2044F68C53C2F20003D3F872
:101970002C3193F84B30002B0AD144F68C53C2F231
:101980000003D3F82C311846012101F0AFF907E02C
:1019900044F68C53C2F20003D3F82C310A225A7059
:1019A00044F68C53C2F200030022C3F82C2101F04C
:1019B000CDFA80BD80B582B000AF78600D2001F017
:1019C0006DFA11F04BFC44F68C53C2F200037A68B6
:1019D000C3F83C2144F68C53C2F20003D3F83C31E7
:1019E0006233184611F000FC0837BD4680BD00BFC9
:1019F00080B500AF44F68C53C2F2000393F828314F
:101A00001A4644F68C53C2F20003DB8809202921D0
:101A10000EF038FB01F09AFA80BD00BFB0B594B06B
:101A200002AF78600E2001F039FA11F017FC11F0C6
:101A30001DF844F68C53C2F20003D3F8604110F055
:101A4000CBFF024644F68C53C2F20003D3F85C315C
:101A5000D31AE21844F68C53C2F20003C3F8602193
:101A600044F68C53C2F200037A68C3F83C21092083
:101A70000BF02CFA024644F68C53C2F20003C3F872
:101A8000382144F68C53C2F20003D3F83831002BCE
:101A900008D109202C21002200230EF0F3FA01F0D6
:101AA00055FA38E144F68C53C2F20003D3F83831CA
:101AB00009221A7044F68C53C2F20003D3F838316D
:101AC00009225A7044F68C53C2F20003D3F838212D
:101AD00044F68C53C2F20003D3F838318D3353608F
:101AE00044F68C53C2F20003D3F83831596844F6F7
:101AF0008C53C2F20003D3F8383103F1080244F6E4
:101B00008C53C2F20003D3F8383103F1890444F650
:101B10008C53C2F20003D3F8383103F18A0044F643
:101B20008C53C2F20003D3F838318B330090019309
:101B3000084611468222234611F072F844F68C536F
:101B4000C2F20003D3F838311B7A012B08D944F6CE
:101B50008C53C2F20003D3F838311B7A802B0CD996
:101B600044F68C53C2F20003D3F838311B7A0920B3
:101B7000372101220EF086FABBE044F68C53C2F204
:101B80000003D3F83831184602210CF03FF844F630
:101B90008C53C2F20003D3F8383193F88B3083F0C2
:101BA0000103DBB2002B00D0A3E044F68C53C2F259
:101BB0000003D3F8382107F10803104619460CF04A
:101BC0009DFB3B7A83F00103DBB2002B00D090E059
:101BD00044F68C53C2F20003D3F83831BA7A83F852
:101BE000492044F68C53C2F20003D3F838317A7C92
:101BF00083F84A2044F68C53C2F20003D3F83831FC
:101C0000383307F13502156854689068D1681D6053
:101C10005C609860D960127C1A7444F68C53C2F2EE
:101C20000003D3F8383193F86C30002B10D048F60D
:101C30007873C0F221031A6944F68C53C2F2000390
:101C4000D3F83831184690470346002B00D050E0B7
:101C500044F68C53C2F20003D3F838217B7A104645
:101C600019460BF091FF44F68C53C2F20003D3F8EF
:101C70002C3107F108021046194600F0EDFC03462E
:101C800083F00103DBB2002B00D032E00AF0ACFE9F
:101C9000034683F00103DBB2002B12D044F68C53D1
:101CA000C2F20003D3F838313833184608F0C2FDC9
:101CB0000346002B05D0B7F846301BB2184600F09B
:101CC000C1FF44F68C50C2F20000012104F04AF931
:101CD00044F68C53C2F20003D3F82C31184600218D
:101CE00001F004F844F68C53C2F200030022C3F85A
:101CF0002C2144F68C53C2F20003D3F83831184635
:101D00000BF04CF944F68C53C2F200030022C3F8E6
:101D1000382101F01BF94837BD46B0BD80B500AF92
:101D2000102001F0BBF844F68C53C2F20003D3F844
:101D30003C315833184611F057FA44F68C53C2F22E
:101D4000000393F84431184610F060FE10F032FFA3
:101D500010F042FE024644F68C53C2F20003C3F870
:101D60005C2144F68C53C2F20003012283F8642103
:101D7000112001F093F880BD80B500AF44F68C537C
:101D8000C2F2000393F828311A4644F68C53C2F28B
:101D90000003DB88092024210EF074F901F0D6F845
:101DA00080BD00BF80B500AF122001F077F810F0C1
:101DB00015FF44F68C53C2F20003D3F83C31AE3326
:101DC000184611F011FA80BD80B500AF01F0BEF8E1
:101DD00080BD00BF80B582B000AF7860132001F0F5
:101DE0005DF811F03BFA44F68C53C2F200037A68B6
:101DF000C3F83C2144F68C53C2F200037A68C3F85E
:101E0000402144F68C53C2F20003D3F83C31A43392
:101E1000184611F0E9F90837BD4680BD80B500AF1E
:101E200044F68C53C2F2000393F828311A4644F664
:101E30008C53C2F20003DB88092026210EF022F920
:101E400001F084F880BD00BFB0B596B002AF7860F5
:101E50000023FB81142001F021F811F0FFF910F0AC
:101E600005FE44F68C53C2F20003D3F8604110F033
:101E7000B3FD024644F68C53C2F20003D3F85C3142
:101E8000D31AE21844F68C53C2F20003C3F860215F
:101E900009200BF01BF8024644F68C53C2F20003F3
:101EA000C3F8302144F68C53C2F20003D3F830312A
:101EB000002B08D109202C21002200230EF0E2F88B
:101EC00001F044F89BE144F68C53C2F20003D3F8CE
:101ED000303109221A7044F68C53C2F20003D3F851
:101EE000303109225A7044F68C53C2F20003D3F801
:101EF000302144F68C53C2F20003D3F830318D33D5
:101F0000536044F68C53C2F20003D3F83031596861
:101F100044F68C53C2F20003D3F8303103F10802C7
:101F200044F68C53C2F20003D3F8303103F1890434
:101F300044F68C53C2F20003D3F8303103F18A0027
:101F400044F68C53C2F20003D3F830318B33009047
:101F50000193084611468222234610F061FE44F6A2
:101F60008C53C2F20003D3F830311B7A012B08D90D
:101F700044F68C53C2F20003D3F830311B7A802B25
:101F80000CD944F68C53C2F20003D3F830311B7ADB
:101F90000920372102220EF075F81EE144F68C5319
:101FA000C2F20003D3F83031184602210BF02EFEA6
:101FB00044F68C53C2F20003D3F8303193F88B30DF
:101FC00083F00103DBB2002B00D006E144F68C5312
:101FD000C2F20003D3F8302107F11003104619466E
:101FE0000CF08CF93B7C83F00103DBB2002B00D0BA
:101FF000F3E044F68C53C2F20003D3F83031BA7CDC
:1020000083F8492044F68C53C2F20003D3F83031F0
:102010007A7E83F84A2044F68C53C2F20003D3F848
:102020003031FA7D83F8652044F68C53C2F2000308
:10203000D3F83031383307F13D02156854689068A1
:10204000D1681D605C609860D960127C1A7444F697
:102050008C53C2F20003D3F8303193F86C30002B6C
:1020600010D048F67873C0F221031A6944F68C53F5
:10207000C2F20003D3F83031184690470346002BD4
:1020800000D0AAE044F68C53C2F20003D3F830210A
:102090007B7C104619460BF077FD3B7C002B23D050
:1020A000FB7D002B20D0BB7C002B1DD104200AF02F
:1020B000D7FC034607F110020B32104619460BF00D
:1020C00049FC0346002B0FD044F68C53C2F20003A8
:1020D000D3F8302107F10E0310461946FEF792FEA1
:1020E0000346002B00D000BF44F68C53C2F200031D
:1020F000D3F83021FB89DBB2104619460BF044FDC2
:1021000044F68C53C2F200037A68C3F83C2107F10D
:102110001003184600F068FA034683F00103DBB2AF
:10212000002B00D059E044F68C53C2F20003D3F8E0
:10213000302144F68C53C2F20003D3F840319BB2F5
:10214000C3F183039BB29BB2A2F86A307B7D002B64
:1021500012D044F68C53C2F2000393F86531002B81
:102160000AD044F68C53C2F20003D3F83C317533E5
:10217000184611F039F842E00AF036FC034683F0C5
:102180000103DBB2002B15D044F68C53C2F20003DE
:10219000D3F830313833184608F04CFB0346002B97
:1021A00008D044F68C53C2F20003D3F840311846ED
:1021B00000F0F4FC44F68C53C2F20003D3F8303143
:1021C000184600F0B5FD44F68C53C2F2000300221D
:1021D000C3F8302100F0BAFE11E044F68C53C2F28D
:1021E0000003D3F8303118460AF0D8FE44F68C5379
:1021F000C2F200030022C3F8302100F0A7FE5037DE
:10220000BD46B0BD90B583B002AF152000F046FECC
:1022100044F68C53C2F20003D3F83C318B3318469A
:1022200010F0E2FF09200AF051FE024644F68C53FA
:10223000C2F20003C3F8342144F68C53C2F2000307
:10224000D3F83431002B18D109202C21002200238F
:102250000DF018FF44F68C53C2F20003D3F830316E
:10226000184600F065FD44F68C53C2F200030022CC
:10227000C3F8302100F06AFEEDE044F68C53C2F260
:102280000003D3F8343109221A7044F68C53C2F299
:102290000003D3F8343109225A7044F68C53C2F249
:1022A0000003D3F840319BB2C3F183039BB29AB2CF
:1022B00044F68C53C2F20003A3F8682144F68C5311
:1022C000C2F20003D3F83431022283F8492044F6E5
:1022D0008C53C2F20003D3F8342144F68C53C2F27B
:1022E0000003D3F8303193F84A3082F84A3044F68C
:1022F0008C53C2F20003D3F8342144F68C53C2F25B
:102300000003D3F8303193F86C3082F86C3044F627
:102310008C53C2F20003D3F8342144F68C53C2F23A
:102320000003D3F8303193F86D3082F86D3044F605
:102330008C53C2F20003D3F8342144F68C53C2F21A
:102340000003D3F8303193F86E3082F86E3044F6E3
:102350008C53C2F20003D3F8341144F68C53C2F20A
:102360000003D3F8343193F8492044F68C53C2F279
:102370000003D3F8303193F84A4044F68C53C2F24C
:102380000003D3F830313833009308461146002259
:1023900023460BF071FE44F68C53C2F20003D3F8CF
:1023A000343193F86C30002B1BD048F67873C0F2B0
:1023B0002103DA6844F68C53C2F20003D3F83431B7
:1023C000184690470346002B0BD044F68C53C2F2BC
:1023D0000003D3F8343118460AF0E0FD00F0B6FDF2
:1023E00039E044F68C53C2F20003D3F83431184676
:1023F00002210BF0EDFB44F68C53C2F2000393F87C
:102400004431184610F002FB44F68C53C2F200032C
:10241000D3F834315A6844F68C53C2F20003D3F82F
:1024200034311B7A1046194610F038FB10F080FB4F
:1024300010F0D2FA024644F68C53C2F20003C3F8FD
:102440005C2144F68C53C2F20003012283F864211C
:10245000162000F023FD0437BD4690BD80B500AFC7
:1024600044F68C53C2F2000393F828311A4644F61E
:102470008C53C2F20003DB88092025210DF002FEF7
:1024800000F064FD80BD00BF80B500AF172000F0F4
:1024900005FD44F68C53C2F20003D3F83C31AC3353
:1024A000184610F0A1FE10F057FB80BD80B500AFBC
:1024B00044F68C53C2F2000393F828311A4644F6CE
:1024C0008C53C2F20003DB88092028210DF0DAFDCD
:1024D00000F03CFD80BD00BF80B582B000AF7860E9
:1024E000182000F0DBFC10F0B9FE44F68C53C2F269
:1024F00000037A68C3F83C2144F68C53C2F200030F
:10250000D3F83C316233184610F06EFE0837BD46F2
:1025100080BD00BF80B500AF44F68C53C2F200030B
:1025200093F828311A4644F68C53C2F20003DB8834
:10253000092029210DF0A6FD00F008FD80BD00BF97
:1025400080B582B000AF7860192000F0A7FC10F0D1
:1025500085FE44F68C53C2F200037A68C3F83C212E
:1025600044F68C53C2F20003D3F8343118460AF013
:1025700015FD44F68C53C2F200030022C3F8342147
:102580000AF032FA034683F00103DBB2002B15D0C8
:1025900044F68C53C2F20003D3F830313833184676
:1025A00008F048F90346002B08D044F68C53C2F2D9
:1025B0000003D3F84031184600F0F0FA44F68C538B
:1025C000C2F20003D3F83031184600F0B1FB44F6F4
:1025D0008C53C2F200030022C3F8302100F0B6FC95
:1025E0000837BD4680BD00BF90B583B000AF7860AE
:1025F0007B681B78002B27D07B689B78012B03D04E
:102600007B689B78002B1FD17B6803F10B040420AF
:102610000AF026FA0346204619460BF09BF90346BA
:10262000002B11D07B681C3318460AF0C5FA03460C
:10263000002B07D17B681C3318460BF0A9F8034622
:10264000002B01D0012300E0002303F00103DBB2E3
:1026500018460C37BD4690BD90B583B000AF78608A
:1026600039607B681B78002B27D07B689B78022B16
:1026700023D17B6803F10B0404200AF0F1F903462F
:10268000204619460BF066F90346002B15D07B68EF
:102690001C3318460AF090FA0346002B0DD07B68D5
:1026A00003F12D023B683833104619460BF052F9FE
:1026B0000346002B01D0012300E0002303F00103B7
:1026C000DBB218460C37BD4690BD00BF80B582B066
:1026D00000AF44F68C53C2F20003B3F803309BB250
:1026E00001339AB244F68C53C2F20003A3F80320DC
:1026F00044F68C53C2F20003B3F803309BB2002BB4
:1027000023D144F68C53C2F20003B3F801309BB2DC
:1027100001339AB244F68C53C2F20003A3F80120AD
:1027200044F68C53C2F20003B3F801309BB2002B85
:102730000BD144F68C53C2F200031B780133DAB29A
:1027400044F68C53C2F200031A7003F019FB0346DF
:10275000FB80FB88002B0CD144F68C53C2F20003A3
:10276000DB8801339AB244F68C53C2F20003DA805C
:1027700011E044F68C53C2F20003DB880133FA887F
:1027800093FBF2F102FB01F29B1A9AB244F68C53CE
:10279000C2F20003DA8044F68C53C2F2000393F8CD
:1027A00045315A1CD3171B0F1A4402F00F02D31ADB
:1027B000DAB244F68C53C2F2000383F8452108379D
:1027C000BD4680BD80B400AF44F68C53C2F2000316
:1027D0000022DA8044F68C53C2F20003002283F810
:1027E000452144F68C53C2F2000300221A7044F6CD
:1027F0008C53C2F200031A686FF317221A6044F672
:102800008C53C2F200030022DA7000221A71BD4616
:102810005DF8047B704700BF80B483B000AF786080
:1028200044F68C53C2F20003B3F803309BB2DAB221
:102830007B681A707B685A1C44F68C53C2F2000302
:10284000B3F803309BB21B0A9BB2DBB213707B68F8
:102850009A1C44F68C53C2F20003B3F801309BB2C9
:10286000DBB213707B68DA1C44F68C53C2F20003AF
:10287000B3F801309BB21B0A9BB2DBB213707B68CA
:102880001A1D44F68C53C2F200031B7813700C37E8
:10289000BD465DF8047B704780B483B000AF44F65A
:1028A0008C53C2F20003B3F86831FB80FB881846F2
:1028B0000C37BD465DF8047B704700BF80B483B021
:1028C00000AF0346FB7144F68C53C2F20003D3F809
:1028D0003031FA7983F8642044F68C53C2F2000355
:1028E000D3F83031012283F867200C37BD465DF8FC
:1028F000047B704790B585B000AF786039603B6865
:102900005B78786819460BF03FF90023FB813B6840
:102910001B78002B20D03B68DB79002B1CD03B6858
:102920009B78002B18D13B6803F10B0404200AF0BC
:1029300097F80346204619460BF00CF80346002B87
:102940000AD007F10E0378681946FEF75BFA0346D2
:10295000002B01D0012300E00023002B01D1002334
:1029600012E03B685B78786819460BF0E9F848F6A6
:102970007873C0F221031B69786898470346002BDF
:1029800001D1012300E0002318461437BD4690BD55
:1029900080B483B000AF78607B681B781A467B6890
:1029A00001331B781B029BB213449AB244F68C533A
:1029B000C2F20003A3F803207B6802331B781A4697
:1029C0007B6803331B781B029BB213449AB244F614
:1029D0008C53C2F20003A3F801207B681A7944F6F5
:1029E0008C53C2F200031A700C37BD465DF8047BAD
:1029F000704700BF80B582B000AF03F0C1F9034655
:102A0000FB8044F68C53C2F200031B783B60FA88CB
:102A10003B68B3FBF2F102FB01F29B1A3B603B689F
:102A20001B043B6044F68C53C2F20003B3F8013040
:102A30009BB23A6813443B60FA883B68B3FBF2F1FF
:102A400002FB01F29B1A3B603B681B043B6044F6AF
:102A50008C53C2F20003B3F803309BB23A681344BC
:102A60003B60FA883B68B3FBF2F102FB01F29B1A70
:102A70003B603B689AB244F68C53C2F20003DA80A2
:102A80000837BD4680BD00BF80B483B000AF0346A9
:102A9000FB7144F68C53C2F20003FA7983F8652186
:102AA0000C37BD465DF8047B704700BF80B483B02F
:102AB00000AF0346FB71FB790A2B02D9FB791A2B75
:102AC00003D9FB79002B00D00DE044F68C53C2F201
:102AD0000003FA7983F8462144F68C53C2F20003CE
:102AE000012283F847210C37BD465DF8047B70470F
:102AF00080B483B000AF0346FB7144F68C53C2F23E
:102B00000003FA7983F866210C37BD465DF8047B33
:102B1000704700BF80B483B000AF0346FB8044F62B
:102B20008C53C2F20003FA88A3F86A210C37BD4621
:102B30005DF8047B704700BF80B400AF44F68C534F
:102B4000C2F20003B3F86A311846BD465DF8047B53
:102B5000704700BF80B483B000AF0346FB7144F6FA
:102B60008C53C2F20003FA7983F858210C37BD4622
:102B70005DF8047B704700BF80B483B000AF0346AC
:102B8000FB7144F68C53C2F20003FA7983F85921A1
:102B90000C37BD465DF8047B704700BF80B586B03A
:102BA00000AF78600FF018FF38610FF027FFF86072
:102BB0007B68833BBB603A697B689A4202D2BB6800
:102BC0007B6103E0FA68BB6813447B617A693B6907
:102BD000D31A042B0ADC44F68C53C2F20003B3F878
:102BE0006A317A6913447B61FFF770FD78690FF0F1
:102BF000FBFE44F68C53C2F2000340F61D12DA606D
:102C000044F68C53C2F200031B7C002B07D0BB6838
:102C10009BB209201C211A4600230DF033FA44F61A
:102C2000F863C2F200031B780133DAB244F6F863AA
:102C3000C2F200031A70B86800F0D0F81837BD4629
:102C400080BD00BF80B584B000AF78600FF0D6FEC5
:102C5000F860FA687B681344BB60B8680FF0C4FE84
:102C600044F68C53C2F2000340F61D12DA6044F6BB
:102C70008C53C2F200031B7C002B07D07B689BB2F5
:102C800009201C211A4601230DF0FCF944F6F863D3
:102C9000C2F200035B780133DAB244F6F863C2F2A1
:102CA00000035A70786800F099F81037BD4680BD6F
:102CB00080B582B000AF0346FB7144F68C53C2F27C
:102CC0000003FA791A7444F68C53C2F200031B7C99
:102CD000002B04D00FF034FC00F04CF803E00FF0B0
:102CE00035FC03F007F90837BD4680BD80B582B0DA
:102CF00000AF78600B46FB707B68FA7883F837206A
:102D00007B6803F14D0244F68C53C2F2000318684D
:102D100010601B7913717B680B225A7046F29D700C
:102D2000C0F2200002210DF04DF80837BD4680BDED
:102D300080B582B000AF78607B6803F14D0244F645
:102D40008C53C2F20003186810601B7913717B6802
:102D50004D33184603F0E4F87B680B225A7046F6B0
:102D6000E100C0F2200001210DF02CF80837BD462B
:102D700080BD00BF80B400AF44F6F863C2F2000328
:102D800000221A7044F6F863C2F2000300225A705F
:102D900044F6F863C2F200037F225A8044F6F863D7
:102DA000C2F200034FF681729A8044F6F863C2F2D1
:102DB00000030022DA719A6802F07F429A6044F6BA
:102DC000F863C2F200030022DA72DA6802F07F428E
:102DD000DA60BD465DF8047B704700BF80B483B005
:102DE00000AF786044F6F863C2F200035B881AB261
:102DF0007B689A4206DD7B689AB244F6F863C2F2B9
:102E000000035A8044F6F863C2F200039B881AB2AA
:102E10007B689A4206DA7B689AB244F6F863C2F29B
:102E200000039A800C37BD465DF8047B704700BFF5
:102E300080B483B000AF0346FB7144F68C53C2F2FA
:102E4000000393F846310A2B0ED944F68C53C2F294
:102E5000000393F846311A2B06D844F68C53C2F27D
:102E6000000393F8463113E044F68C53C2F200039A
:102E700093F845311A46FB79134403F00F0244F6E8
:102E80008C53C2F20003134493F848310B33DBB286
:102E900018460C37BD465DF8047B704780B582B09C
:102EA00000AF0346FB7144F68C53C2F20003FA797B
:102EB00083F8282144F68C53C2F2000393F828319A
:102EC000192B40D801A252F823F000BF3B2F20005D
:102ED000352F2000412F2000412F2000352F2000CA
:102EE000412F2000412F2000412F2000412F2000A2
:102EF000412F2000412F2000412F2000412F200092
:102F0000412F2000412F20003B2F2000412F200087
:102F1000412F2000412F2000412F2000412F200071
:102F2000412F2000412F2000412F2000412F200061
:102F3000412F20000FF028F805E00FF019F802E00B
:102F40000FF00CF800BF0837BD4680BD98B500AF44
:102F50000FF08CFD44F68C53C2F2000393F86431F9
:102F6000002B16D044F68C53C2F20003D3F8604114
:102F70000FF032FD024644F68C53C2F20003D3F840
:102F80005C31D31AE21844F68C53C2F20003C3F842
:102F9000602110F063F944F68C53C2F20003002262
:102FA000C3F83C2144F68C53C2F200030022C3F85C
:102FB000402144F6F863C2F20003D3F8072044F638
:102FC0008C53C2F20003D3F860311A4444F6F8631C
:102FD000C2F20003C3F8072044F6F863C2F200030C
:102FE000D3F80B400FF00AFD0346E21844F6F863ED
:102FF000C2F20003C3F80B2044F6F863C2F20003E8
:10300000D3F80B30002B19DA44F6F863C2F2000350
:10301000D3F80B305A0844F6F863C2F20003C3F841
:103020000B2044F6F863C2F20003D3F807305A08C5
:1030300044F6F863C2F20003C3F8072044F68C5349
:10304000C2F200030022C3F8602144F68C53C2F29E
:103050000003002283F8642144F68C53C2F200037B
:10306000D3F82C31002B36D044F68C50C2F200003D
:10307000002102F077FF44F68C53C2F20003D3F82C
:103080002C3193F84B20013AD2B283F84B2044F60E
:103090008C53C2F20003D3F82C3193F84B30002B41
:1030A0000AD144F68C53C2F20003D3F82C311846EF
:1030B0000121FFF71BFE07E044F68C53C2F2000328
:1030C000D3F82C310A225A7044F68C53C2F2000312
:1030D0000022C3F82C2144F68C53C2F20003D3F82B
:1030E0003031002B0FD044F68C53C2F20003D3F8DA
:1030F00030311846FFF71CFE44F68C53C2F2000331
:103100000022C3F8302144F68C53C2F20003D3F8F6
:103110003431002B0FD044F68C53C2F20003D3F8A5
:103120003431184609F03AFF44F68C53C2F20003DA
:103130000022C3F8342144F68C53C2F20003D3F8C2
:103140003831002B0FD044F68C53C2F20003D3F871
:103150003831184609F022FF44F68C53C2F20003BE
:103160000022C3F838210020FFF798FE98BD00BF69
:1031700080B400AF44F68C53C2F200031B7C1846A7
:10318000BD465DF8047B704780B500AF44F618700B
:10319000C2F2000000212C2215F0FCFD44F6187349
:1031A000C2F2000300221A7044F61873C2F2000340
:1031B0000022DA8444F61873C2F200033A221A8518
:1031C00044F61873C2F20003002283F82A2080BD5F
:1031D00084B0B0B584B000AF044607F1240080E8A5
:1031E0000E002346FB8044F61873C2F200031B8DC9
:1031F000B3F5FA6F12D944F61873C2F2000393F8CC
:103200002A3083F00103DBB2002B07D0B7F9063078
:10321000052B40F3E58000F09BFAE1E044F61873DB
:10322000C2F2000393F82A3083F00103DBB2002BD3
:1032300073D0FFF79DFF0346002B6ED007F12403E8
:1032400018466A490AF086FB0346002B65D0684899
:10325000FDF7F0F8024644F61873C2F200031B8D26
:103260009A424AD9B7F90630184600F0C3F844F636
:103270001873C2F2000300225A8144F61873C2F296
:1032800000030022DA8444F61873C2F200031B8D97
:103290005B009AB244F61873C2F200031A8544F632
:1032A0001873C2F200031B8D184603F021F807F1D2
:1032B00008031846FFF7B0FA7B7A1B029AB23B7AF2
:1032C00013439BB29AB244F61873C2F20003A3F8F8
:1032D0000F20FB7A1B029AB2BB7A13439BB29AB2BD
:1032E00044F61873C2F20003A3F80D203A7B44F6AB
:1032F0001873C2F200031A7372E044F61873C2F234
:103300000003DB8C9AB2FB8813449BB29AB244F65A
:103310001873C2F20003DA8462E044F61873C2F252
:1033200000033A221A8544F61873C2F200031B8D7B
:10333000184602F0DDFF44F61873C2F200030022C3
:103340001A7044F61873C2F2000300225A6044F661
:103350001873C2F2000300221A8144F61873C2F2F5
:10336000000300225A8144F61873C2F200030022BF
:10337000DA8407F108031846FFF74EFA7B7A1B023E
:103380009AB23B7A13439BB29AB244F61873C2F2D4
:103390000003A3F80F20FB7A1B029AB2BB7A1343F7
:1033A0009BB29AB244F61873C2F20003A3F80D2040
:1033B0003A7B44F61873C2F200031A7344F618738A
:1033C000C2F20003123307F12402156854689068B2
:1033D000D1681D605C609860D960127C1A74FFE748
:1033E0001037BD46BDE8B04004B070472A4F0020FA
:1033F000244F002080B584B000AF0346FB8044F624
:103400001873C2F200031B78002B02D10123FB7357
:1034100001E00023FB735948FDF70CF8024644F61F
:103420001873C2F200035A60FB7B002B4DD0B7F932
:103430000630012B21DD44F61873C2F2000301228D
:103440001A7044F61873C2F200035B689AB244F62D
:103450001873C2F200039A8444F61873C2F2000390
:103460009B8C1A46B7F9063092FBF3F39AB244F6F6
:103470001873C2F200039A8472E0B7F90630B3F110
:10348000FF3F6DDA44F61873C2F2000302221A708D
:1034900044F61873C2F200035B689AB244F61873DC
:1034A000C2F200039A8444F61873C2F200039B8CA4
:1034B0001A46B7F906305B4292FBF3F39AB244F630
:1034C0001873C2F200039A844AE044F61873C2F2F9
:1034D00000031B78022B12D144F61873C2F20003CA
:1034E0005B89BB8144F61873C2F20003DB8C9AB28D
:1034F000FB8813449BB2BA89D31ABB8111E044F60E
:103500001873C2F200035B89BB8144F61873C2F2E0
:103510000003DB8C9AB2FB8813449AB2BB89134434
:10352000BB81BB89002B02D100F012F918E044F6F0
:103530001873C2F200035B689AB244F61873C2F2C1
:1035400000039A8444F61873C2F200039A8CBB8974
:10355000B2FBF3F39AB244F61873C2F200039A84F2
:1035600044F61873C2F200039A8C44F61873C2F240
:1035700000031A811037BD4680BD00BF244F0020D4
:1035800080B582B000AFFFF7D7FA0346FB8044F660
:103590001873C2F200031B78002B00D14EE044F6F2
:1035A0001873C2F200031B89002B00D146E044F6D9
:1035B0001873C2F200031B89013B9AB244F61873D8
:1035C000C2F200031A8144F61873C2F200031B8989
:1035D000002B33D144F61873C2F200031B78022B80
:1035E0000FD1FB88013BFB8044F61873C2F2000345
:1035F0005B8901339AB244F61873C2F200035A8110
:103600000EE0FB880133FB8044F61873C2F200031E
:103610005B8901339AB244F61873C2F200035A81EF
:10362000FB8818460FF0E0F944F61873C2F2000365
:103630009A8C44F61873C2F200031A810837BD460B
:1036400080BD00BF80B584B000AF0346FB80FFF7AC
:1036500073FA0346FA88013292B202FB03F37B81CC
:1036600044F61873C2F200031B78002B00D16BE004
:1036700044F61873C2F200031B89002B00D163E0EB
:10368000FB88002B00D15FE0FB88FB8100237B736C
:1036900022E044F61873C2F200031B89013B9AB280
:1036A00044F61873C2F200031A8144F61873C2F28A
:1036B00000031B89002B0CD17B7B01337B7344F609
:1036C0001873C2F200039A8C44F61873C2F2000316
:1036D0001A81FB89013BFB81FB89002BD9D17B7BC4
:1036E000002B31D044F61873C2F200031B78022B72
:1036F00013D17B7B9BB27A89D31A7B8144F61873F2
:10370000C2F200035A897B7B9BB213449AB244F6FF
:103710001873C2F200035A8112E07B7B9AB27B8954
:1037200013447B8144F61873C2F200035A897B7BF1
:103730009BB213449AB244F61873C2F200035A8142
:103740007B8918460FF050F91037BD4680BD00BF89
:1037500080B400AF44F61873C2F20003012283F86C
:103760002A20BD465DF8047B704700BF80B400AFDF
:1037700000BFBD465DF8047B704700BF80B483B0D6
:1037800000AF786000BF0C37BD465DF8047B704722
:1037900080B483B000AF7860396000BF0C37BD469D
:1037A0005DF8047B704700BF80B483B000AF7860E1
:1037B000002318460C37BD465DF8047B704700BFF8
:1037C00080B483B000AF7860002318460C37BD4644
:1037D0005DF8047B704700BF80B483B000AF034640
:1037E000FB71002318460C37BD465DF8047B70471B
:1037F00080B483B000AF13460246FA710A46BA712C
:103800007B71002318460C37BD465DF8047B70477A
:1038100080B500AF44F20040C2F2000000214FF436
:10382000B17215F0B7FA80BD80B483B000AF002349
:10383000BB710023FB7113E0FA7944F20041C2F23C
:10384000000113469B001344DA00D21A8B181B7830
:10385000002B02D0BB790133BB71FB790133FB71C3
:10386000FB79092BE8D9BB7918460C37BD465DF8C2
:10387000047B704780B483B000AF0346FB71FA79D4
:1038800044F20041C2F2000113469B001344DA00E7
:10389000D21A8B181033B3F805309BB218460C3788
:1038A000BD465DF8047B704780B584B000AF034629
:1038B000FB8007F10D03184606F076FF0346002B48
:1038C00033D07B7B1A4644F20041C2F2000113461A
:1038D0009B001344DA00D21A8B181B78002B24D0DB
:1038E0007B7B1A4613469B001344DA00D21A183227
:1038F00044F20043C2F20003134404331846FCF7B9
:1039000099FD0346FB81FA89FB889A420DD97B7B9E
:103910001A4613469B001344DA00D21A44F20043BD
:10392000C2F200031344043300E0002318461037AA
:10393000BD4680BD80B483B000AF0346FB71FA7909
:1039400044F20041C2F2000113469B001344DA0026
:10395000D21A8B1820339B7818460C37BD465DF879
:10396000047B704780B58CB000AF7860002387F887
:103970002E307B681B78032B0DD107F1080207F16D
:103980001C03786811461A4609F042FE00BF002366
:1039900087F82F302DE07B681B780D2031211A46E7
:1039A00000230CF083FB97F82E3028E007F11C026F
:1039B00097F82F301046194600F0D6FF0346002B2B
:1039C00012D097F82F2044F20041C2F200011346B2
:1039D0009B001344DA00D21A8B189B78002B03D07B
:1039E000012387F82E3008E097F82F30013387F84D
:1039F0002F3097F82F30092BD8D997F82E3018464A
:103A00003037BD4680BD00BF80B483B000AF0346F1
:103A1000FB71FA7944F20041C2F2000113469B00A7
:103A20001344DA00D21A8B189B78002B0FD0FA7946
:103A300044F20041C2F2000113469B001344DA0035
:103A4000D21A8B181B78002B01D0012300E0002331
:103A500003F00103DBB218460C37BD465DF8047B6A
:103A6000704700BF90B585B000AF0346FB71FA798F
:103A700044F20041C2F2000113469B001344DA00F5
:103A8000D21A8B181B78002B16D0FA7944F2004119
:103A9000C2F2000113469B001344DA00D21A8B18BD
:103AA0001033B3F805309CB206F0FCFE03469C428E
:103AB00002D20123FB7301E00023FB73FB7B18465A
:103AC0001437BD4690BD00BF90B585B000AF03462A
:103AD000FB71FA7944F20041C2F2000113469B00E7
:103AE0001344DA00D21A8B181B78002B16D0FA79FF
:103AF00044F20041C2F2000113469B001344DA0075
:103B0000D21A8B181033B3F805309CB206F0CAFEF7
:103B100003469C4202D30123FB7301E00023FB73A5
:103B2000FB7B18461437BD4690BD00BF80B588B0FA
:103B300002AFF8607A600A46FA72BB720123BB7565
:103B40000023FB7540E1FB7DF868194600F00CFF8F
:103B50000346002B00F035810023BB75FA7D44F24B
:103B60000040C2F2000013469B001344D900C91A5A
:103B7000431818331B780133D8B244F20041C2F223
:103B8000000113469B001344DA00D21A8B18183335
:103B900002461A70FA7D44F20041C2F20001134657
:103BA0009B001344DA00D21A8B181033FA7ADA71B8
:103BB000FA7D13469B001344DA00D21A183244F2FD
:103BC0000043C2F20003134404337A681168196099
:103BD00012791A71BB7A002B0ED0FA7D44F20041A3
:103BE000C2F2000113469B001344DA00D21A8B186C
:103BF000203397F820205A70FA7D44F20041C2F237
:103C0000000113469B001344DA00D21A8B189B78EC
:103C100083F00103DBB2002B62D0FA7D44F2004155
:103C2000C2F2000113469B001344DA00D21A8B182B
:103C30001033DB795BB213F14F0F43DBFA7D44F2B3
:103C40000040C2F2000013469B001344D900C91A79
:103C50004318DB780133D8B244F20041C2F20001CC
:103C600013469B001344DA00D21A8B180246DA700E
:103C7000FA7D44F20041C2F2000113469B00134456
:103C8000DA00D21A8B18DB78022B40F29980FA7D89
:103C900044F20041C2F2000113469B001344DA00D3
:103CA000D21A8B180022DA70FA7D44F20041C2F277
:103CB000000113469B001344DA00D21A8B1801222C
:103CC0009A707DE0FA7D44F20041C2F20001134691
:103CD0009B001344DA00D21A8B180022DA7077E0C6
:103CE000FA7D44F20041C2F2000113469B001344E6
:103CF000DA00D21A8B189B78002B61D0FA7D44F23F
:103D00000041C2F2000113469B001344DA00D21AAC
:103D10008B181033DB795BB213F15A0F42DAFA7D5C
:103D200044F20040C2F2000013469B001344D90045
:103D3000C91A4318DB780133D8B244F20041C2F209
:103D4000000113469B001344DA00D21A8B18024676
:103D5000DA70FA7D44F20041C2F2000113469B0082
:103D60001344DA00D21A8B18DB78022B28D9FA7D9B
:103D700044F20041C2F2000113469B001344DA00F2
:103D8000D21A8B180022DA70FA7D44F20041C2F296
:103D9000000113469B001344DA00D21A8B1800224C
:103DA0009A7015E0FA7D44F20041C2F20001134618
:103DB0009B001344DA00D21A8B180022DA7007E055
:103DC00006E0FB7D0133FB75FB7D092B7FF6BBAE67
:103DD000BB7D002B0AD097F90B20BB7A97F82010F7
:103DE0000091F86811467A6800F0D8FB1837BD4694
:103DF00080BD00BF90B587B000AFF8607B600B4618
:103E0000FB721346BB72F86809F0C2FC0346002B34
:103E100000D0CCE00023FB75C5E0FB7DF8681946B7
:103E200000F0A2FD0346002B00F0BA80FA7D44F2B8
:103E30000041C2F2000113469B001344DA00D21A7B
:103E40008B1818335B781A46FB7AC3F1FF039A424A
:103E500055DDFA7D44F20040C2F2000013469B009B
:103E60001344D900C91A43181833DB780133D8B288
:103E700044F20041C2F2000113469B001344DA00F1
:103E8000D21A8B1818330246DA70F87DFA7D44F2A4
:103E90000041C2F2000113469B001344DA00D21A1B
:103EA0008B1818335B785B08DCB244F20041C2F235
:103EB000000103469B000344DA00D21A8B18183322
:103EC00022465A70F87DFA7D44F20041C2F20001A8
:103ED00013469B001344DA00D21A8B1818339B78D0
:103EE0005B08DCB244F20041C2F2000103469B00D1
:103EF0000344DA00D21A8B18183322469A70F87DE0
:103F0000FA7D44F20041C2F2000113469B001344C3
:103F1000DA00D21A8B1818335A78FB7A1344DCB2C1
:103F200044F20041C2F2000103469B000344DA0060
:103F3000D21A8B18183322465A70BB7A002B2ED017
:103F4000FA7D44F20040C2F2000013469B00134485
:103F5000D900C91A431818339B780133D8B244F2F8
:103F60000041C2F2000113469B001344DA00D21A4A
:103F70008B18183302469A70FA7D13469B0013443F
:103F8000DA00D21A183244F20043C2F2000313449A
:103F900004337A681168196012791A7107E006E033
:103FA000FB7D0133FB75FB7D092B7FF636AF1C379C
:103FB000BD4690BD80B584B000AF786013460A4618
:103FC000FA70BB700023FB73FB78022B23D17B6854
:103FD000591CBA7813469B001344DA00D21A44F2F3
:103FE0000043C2F2000313445A1D0B461168526885
:103FF00019605A607B6802221A70BA7844F2004154
:10400000C2F2000113469B001344DA00D21A8B1847
:104010001B78FB7308E0FB789BB20D2031211A4618
:1040200001230CF043F800BFFB7B18461037BD4658
:1040300080BD00BF80B483B000AF02460B46FA716A
:10404000BB80FA7944F20041C2F2000113469B00A2
:104050001344DA00D21A8B181033BA88A3F805205B
:104060000C37BD465DF8047B704700BF80B584B057
:1040700000AF78600023FB7319E0FB7B786819467A
:1040800000F072FC0346002B0ED0FA7B44F2004194
:10409000C2F2000113469B001344DA00D21A8B18B7
:1040A000203301229A7005E0FB7B0133FB73FB7B1D
:1040B000092BE2D91037BD4680BD00BF80B483B064
:1040C00000AF02460B46FA71BB71FA79B87944F237
:1040D0000041C2F2000113469B001344DA00D21AD9
:1040E0008B1802465A700C37BD465DF8047B70474A
:1040F00080B485B000AF0346FB71FA7944F2004109
:10410000C2F2000113469B001344DA00D21A8B1846
:1041100018339B78002B03D14FF42C53FB8133E0F1
:10412000FA7944F20041C2F2000113469B001344A5
:10413000DA00D21A8B1818335B789B02BB60BA681E
:1041400013465B0013441B021846FA7944F20041FF
:10415000C2F2000113469B001344DA00D21A8B18F6
:1041600018339B78B0FBF3F3BB60BB68A3F5002367
:10417000BB60BB68B3F1806F03D34FF6FF73FB8165
:1041800002E0BB689B0AFB81FB8918461437BD46D9
:104190005DF8047B704700BF80B584B000AF00239A
:1041A000FB7340E0FA7B44F20041C2F20001134687
:1041B0009B001344DA00D21A8B181B78002B2FD0E7
:1041C000FA7B13469B001344DA00D21A183244F2E9
:1041D0000043C2F20003134404331846FCF72AF9E3
:1041E000B860BA6840F61D139A4219D9BB1D18462B
:1041F00006F0DAFA0346FB71FB79002B0CD0BB7991
:10420000FA7B9A4208D106F025FDFB7B184600F0A8
:10421000D9FA06F067FB03E0FB7B184600F0D2FA00
:10422000FB7B0133FB73FB7B092BBBD94FF6FF7381
:10423000BB810023FB7347E0FA7B44F20041C2F2EA
:10424000000113469B001344DA00D21A8B181B7826
:10425000002B36D0FA7B44F20041C2F20001134633
:104260009B001344DA00D21A8B181033B3F80530D0
:104270009BB2BA899A4224D9FA7B44F20041C2F235
:10428000000113469B001344DA00D21A8B18203326
:104290009B7883F00103DBB2002B12D0FA7B44F24F
:1042A0000041C2F2000113469B001344DA00D21A07
:1042B0008B1810335A799B791B021343BB81FB7B0C
:1042C0003B70FB7B0133FB73FB7B092BB4D9BA89B1
:1042D0004FF6FF739A4200D103E14FF6FF73BB81A3
:1042E0000023FB734BE0FA7B44F20041C2F2000171
:1042F00013469B001344DA00D21A8B181B78002B4C
:104300003AD0FA7B44F20041C2F2000113469B000E
:104310001344DA00D21A8B181033B3F805309BB26D
:10432000BA899A4228D93B78FA7B9A4224D0FA7B00
:1043300044F20041C2F2000113469B001344DA002C
:10434000D21A8B1820339B7883F00103DBB2002B49
:1043500012D0FA7B44F20041C2F2000113469B00E6
:104360001344DA00D21A8B1810335A799B791B0246
:104370001343BB81FB7B7B70FB7B0133FB73FB7BBC
:10438000092BB0D9BA894FF6FF739A4200D1A8E041
:104390004FF6FF73BB810023FB734FE0FA7B44F2BF
:1043A0000041C2F2000113469B001344DA00D21A06
:1043B0008B181B78002B3ED0FA7B44F20041C2F2EE
:1043C000000113469B001344DA00D21A8B181033F5
:1043D000B3F805309BB2BA899A422CD93B78FA7B64
:1043E0009A4228D07B78FA7B9A4224D0FA7B44F216
:1043F0000041C2F2000113469B001344DA00D21AB6
:104400008B1820339B7883F00103DBB2002B12D092
:10441000FA7B44F20041C2F2000113469B001344B0
:10442000DA00D21A8B1810335A799B791B02134386
:10443000BB81FB7BBB70FB7B0133FB73FB7B092BDD
:10444000ACD9BA894FF6FF739A4200D149E00023F4
:10445000FB7343E0FA7B44F20041C2F200011346D1
:104460009B001344DA00D21A8B181B78002B32D031
:104470003B78FA7B9A422ED07B78FA7B9A422AD0FC
:10448000BB78FA7B9A4226D0BB1D184606F08CF901
:104490000346FB71FB79002B07D0BB79FA7B9A426C
:1044A00003D106F0D7FB06F01DFAFA7B44F2004177
:1044B000C2F2000113469B001344DA00D21A8B1893
:1044C00020339B7883F00103DBB2002B03D0FB7B0E
:1044D000184600F077F9FB7B0133FB73FB7B092B5C
:1044E000B8D91037BD4680BDF0B58BB000AF44F2EF
:1044F0000043C2F2000393F86031591C46F267632F
:10450000C6F2666383FB01239A10CB17D21A1346B7
:104510009B0013445B00CA1AD2B244F20043C2F2B9
:10452000000383F8602144F20043C2F2000393F8D1
:1045300060313B7144F20043C2F2000393F86031F2
:104540001A4644F20041C2F2000113469B00134494
:10455000DA00D21A8B187A1D03F12004114618468E
:10456000D0F800E046688568C068C1F800E04E6099
:104570008D60C86010331032A342EFD119889B7848
:10458000118093703B1D0920194624220BF022FD57
:10459000012318462C37BD46F0BD00BFB0B586B02C
:1045A00000AFF8607A600A46FA72BB72FB681B784B
:1045B000022B08D0FB681B780D2031211A460223FC
:1045C0000BF074FDDDE0F86800F0DEF8034683F0E0
:1045D0000103DBB2002B00F0D4800023FB75C2E0A6
:1045E000FA7D44F20041C2F2000113469B001344DD
:1045F000DA00D21A8B181B7883F00103DBB2002B90
:1046000000F0AE80FA7D44F20041C2F20001134690
:104610009B001344DA00D21A8B1801221A70FA7D1B
:1046200044F20041C2F2000113469B001344DA0039
:10463000D21A8B1801229A70FA7D44F20041C2F21C
:10464000000113469B001344DA00D21A8B18002293
:10465000DA70FA7D13469B001344DA00D21A44F252
:104660000043C2F2000313440433FA681568546827
:104670009068D1681D605C609860D960127C1A7483
:10468000FA7D44F20041C2F2000113469B0013443C
:10469000DA00D21A8B1810334FF0FF325A714FF0F4
:1046A000FF329A71FA7D44F20041C2F200011346D2
:1046B0009B001344DA00D21A8B181033FA7ADA719D
:1046C000FA7D44F20041C2F2000113469B001344FC
:1046D000DA00D21A8B18183301221A70FA7D44F2CC
:1046E0000041C2F2000113469B001344DA00D21AC3
:1046F0008B18183300225A70FA7D44F20041C2F23E
:10470000000113469B001344DA00D21A8B181833A9
:1047100000229A70FA7D13469B001344DA00D21AE5
:10472000183244F20043C2F20003134404337A689F
:104730001168196012791A71BB7A002B0FD0FA7DBB
:1047400044F20041C2F2000113469B001344DA0018
:10475000D21A8B18203397F828205A7007E006E009
:10476000FB7D0133FB75FB7D092B7FF639AFFB7DAC
:104770000A2B06D10D2014210A2200230BF082FC03
:1047800000BF1837BD46B0BD80B584B000AF7860BB
:104790000023FB730023FB730CE0FB7B7868194656
:1047A00000F0E2F80346002B01D0012306E0FB7B7A
:1047B0000133FB73FB7B092BEFD90023184610371D
:1047C000BD4680BD80B483B000AF0346FB71FA796B
:1047D00044F20041C2F2000113469B001344DA0088
:1047E000D21A8B1800221A70FA7944F20041C2F2F0
:1047F000000113469B001344DA00D21A8B180022E2
:104800005A70FA7944F20041C2F2000113469B004B
:104810001344DA00D21A8B1800229A70FA7944F203
:104820000041C2F2000113469B001344DA00D21A81
:104830008B180022DA70FA7944F20041C2F20001CA
:1048400013469B001344DA00D21A8B1800221A7107
:10485000FA7944F20041C2F2000113469B0013446E
:10486000DA00D21A8B1810334FF0FF325A714FF022
:10487000FF329A71FA7944F20041C2F20001134604
:104880009B001344DA00D21A8B1810330022DA711D
:10489000FA7944F20041C2F2000113469B0013442E
:1048A000DA00D21A8B18183300221A70FA7944F2FF
:1048B0000041C2F2000113469B001344DA00D21AF1
:1048C0008B18183300225A70FA7944F20041C2F270
:1048D000000113469B001344DA00D21A8B181833D8
:1048E00000229A70FA7944F20041C2F200011346A4
:1048F0009B001344DA00D21A8B1818330022DA71A5
:1049000000221A72FA7944F20041C2F20001134601
:104910009B001344DA00D21A8B18183300225A7104
:1049200000229A71FA7944F20041C2F20001134662
:104930009B001344DA00D21A8B18183300221A7124
:10494000FA7944F20041C2F2000113469B0013447D
:10495000DA00D21A8B18203300229A700C37BD4629
:104960005DF8047B704700BF80B582B000AF78600F
:104970000B46FB707B681B78022B27D1FA7844F238
:104980000041C2F2000113469B001344DA00D21A20
:104990008B181B78002B14D0FA7813469B00134415
:1049A000DA00D21A44F20043C2F200031344043383
:1049B0007868194608F0CEFF0346002B01D001238A
:1049C00000E0002303F00103DBB208E07B681B7802
:1049D0000D2031211A4603230BF068FB00231846F3
:1049E0000837BD4680BD00BF80B500AF44F64470B7
:1049F000C2F200000021022214F0CCF944F6447304
:104A0000C2F2000300221A7080BD00BF80B500AF63
:104A100044F66920C0F2200008210BF0D3F980BDD4
:104A200080B500AF44F6B120C0F2200008210BF0A1
:104A3000C9F980BD80B500AF44F6F920C0F220006E
:104A400008210BF0BFF980BD80B483B000AF0346EE
:104A5000FB7144F64473C2F20003FA795A700C37C2
:104A6000BD465DF8047B704780B586B000AF3B1D46
:104A7000184605F0B1FE0346FB75FB7D83F001038C
:104A8000DBB2002B00D00FE0022001F069FC0346EE
:104A900083F00103DBB2002B00D005E03B1D0120B9
:104AA0001946012201F07EFC1837BD4680BD00BFCB
:104AB00080B586B000AF3B1D184605F08DFE03465D
:104AC000FB75FB7D83F00103DBB2002B00D00FE010
:104AD000022001F045FC034683F00103DBB2002B0A
:104AE00000D005E03B1D02201946012201F05AFCCE
:104AF0001837BD4680BD00BF80B586B000AF07F057
:104B000073FF0346002B00D06DE044F64473C2F2FD
:104B100000035B78002B0CD044F64473C2F2000310
:104B20005B78013BDAB244F64473C2F200035A7078
:104B300059E03B46184605F04FFE0346FB75FB7DEA
:104B400083F00103DBB2002B00D04CE0012001F028
:104B50006BF80346BB75022001F066F803467B75CF
:104B600044F64473C2F200031B783B7597F9162094
:104B700097F9151097F914300B449A4219DC02206A
:104B800001F0EEFB034683F00103DBB2002B00D003
:104B900029E07A7D3B7D1344DAB2BB7DD31ADBB2C8
:104BA0000133DBB23A46012011461A4601F0FAFB06
:104BB00019E097F9152097F914301A4497F916302F
:104BC000023B9A420FDA022001F0CAFB034683F04F
:104BD0000103DBB2002B00D005E03B460220194662
:104BE000022201F0DFFB1837BD4680BD80B483B0E0
:104BF00000AF0346FB7144F64473C2F20003FA7936
:104C00001A700C37BD465DF8047B704780B584B0E0
:104C100000AF78600B46FB707868022108F090FFC7
:104C2000FB789BB2BB81BA894FF40843CFF6FF7380
:104C300013439BB2BB817B685B68BA89D2B21A709E
:104C40007B685B680133BA89120A92B2D2B21A70D9
:104C50001037BD4680BD00BF80B584B000AF78601E
:104C60000B46FB707868022108F06AFFFB789BB264
:104C7000BB81BA894FF42843CFF6FF7313439BB22D
:104C8000BB817B685B68BA89D2B21A707B685B684B
:104C90000133BA89120A92B2D2B21A701037BD46E5
:104CA00080BD00BF80B584B000AF78600023FB7387
:104CB0007868062108F044FF7B685A687B681A66AA
:104CC000FB7B0633FB737868022108F039FF06236B
:104CD000BB81BB8943F4D0539BB2BB817B685B68CB
:104CE000BA89D2B21A707B685B680133BA89120A3A
:104CF00092B2D2B21A70FB7B0233FB73FB7B184675
:104D00001037BD4680BD00BF90B587B000AF78605A
:104D10000023FB750023FB7401233B820F23FB74EC
:104D20003B8ABB8227E07868052108F009FF7B6891
:104D30005B68BA8AD2B2013AD2B21A707B685B68F9
:104D40000133BA8A013A1212D2B21A707B685B68D8
:104D5000023300221A707B685B68033300221A70EA
:104D60007B685B680433FA7C1A70FB7D0533FB7546
:104D7000BB8A013BBB82BB8A002BD4D101F000F877
:104D80000346FB817868052108F0DAFE7B685C68E1
:104D900001F01EF8034623707B685B685C1C01F021
:104DA00003F8034623707B685B680233FA89D2B24A
:104DB0001A707B685B680333FA89120A92B2D2B226
:104DC0001A707B685B68043301221A70FB7D05331F
:104DD000FB757868022108F0B3FEFB7D9BB2BB81B6
:104DE000BB8943F4D8539BB2BB817B685B68BA89AB
:104DF000D2B21A707B685B680133BA89120A92B228
:104E0000D2B21A70FB7D0233FB75FB7D18461C374E
:104E1000BD4690BD80B584B000AF78600023FB73C1
:104E2000FDF78AFE0346BB81BB89B3F5A47F0BD196
:104E30007868012108F084FE7B685B6800221A70A4
:104E4000FB7B0133FB731BE07868022108F078FEDE
:104E50007B685B68BA89D2B21A707B685B68013381
:104E6000BA89120A92B2D2B21A707868012108F097
:104E700067FE7B685B6801221A70FB7B0333FB7360
:104E80007868022108F05CFEFB7B9BB23B813B898A
:104E900043F4E0539BB23B817B685B683A89D2B2B2
:104EA0001A707B685B6801333A89120A92B2D2B2F7
:104EB0001A70FB7B0233FB73FB7B18461037BD4631
:104EC00080BD00BF80B584B000AF78600023FB7365
:104ED0007868012108F034FE7B685B6800221A7054
:104EE000FB7B0133FB737868022108F029FEFB7B12
:104EF0009BB2BB81BA894FF44843CFF6FF7313438B
:104F00009BB2BB817B685B68BA89D2B21A707B683E
:104F10005B680133BA89120A92B2D2B21A70FB7B73
:104F20000233FB73FB7B18461037BD4680BD00BFC4
:104F300080B584B000AF78600B46FB7078680221C2
:104F400008F0FEFDFB789BB2BB81BA894FF4494360
:104F5000CFF6FF7313439BB2BB817B685B68BA8952
:104F6000D2B21A707B685B680133BA89120A92B2B6
:104F7000D2B21A70022318461037BD4680BD00BF5A
:104F800080B584B000AF78600B46FB700023FB73E4
:104F90007868012108F0D4FD7B685B6800221A70F4
:104FA000FB7B0133FB737B68FA7883F85F207868BA
:104FB000012108F0C5FD0123BB73FB781B01DAB2A8
:104FC000BB7B1343DBB2BB737B685B68BA7B1A7035
:104FD000FB7B0133FB73FB7B18461037BD4680BD5E
:104FE00080B584B000AF78600023FB73786801213E
:104FF00008F0A6FD7B685B68C9221A70FB7B013351
:10500000FB73FB7B18461037BD4680BD80B584B06E
:1050100000AF786039600023BB7300237B730023EB
:10502000FB734CE0FA7B13469B0013443A6813442D
:105030001B79002B40D07868042108F081FD7B6843
:105040005968FA7B13469B0013443A6813441B8843
:105050009BB2DBB20B707B685B68591CFA7B134612
:105060009B0013443A6813441B889BB21B0A9BB2F3
:10507000DBB20B707B685B68991CFA7B13469B0064
:1050800013443A6813445B889BB2DBB20B707B68B5
:105090005B68D91CFA7B13469B0013443A6813449F
:1050A0005B889BB21B0A9BB2DBB20B70BB7B0433E9
:1050B000BB737B7B01337B73FB7B0133FB73FB7B1C
:1050C000022BAFD97B687A7B83F85C207B685A68B7
:1050D0007B689A65BB7B18461037BD4680BD00BF14
:1050E00080B58EB002AF786039603B681B7887F876
:1050F0002E307B685A6897F82E3013441B7887F857
:105100002D3097F82E30013387F82E3097F82D3058
:10511000184600F011FB002387F82C3097F82C205C
:1051200097F82D309A4280F0C3807B685A6897F8D0
:105130002E3013441B7887F8243097F82E30013333
:1051400087F82E3097F82430184600F0E1FA7B6893
:105150005A6897F82E3013441B78A7F8253097F833
:105160002E30013387F82E30B7F825309BB29AB233
:105170007B68596897F82E300B441B781B029BB252
:1051800013439BB29BB2A7F8253097F82E3001331A
:1051900087F82E3000F0F4FD03467B85B7F8253004
:1051A0009BB2184600F096FA7B685A6897F82E3042
:1051B00013441B7887F8273097F82E30013387F88F
:1051C0002E307B8D002B6DD1002387F82F3063E0CC
:1051D0007B685A6897F82E3013441B78BB8397F886
:1051E0002E30013387F82E30BB8B9AB27B6859681A
:1051F00097F82E300B441B781B029BB213439BB2D3
:105200009BB2BB8397F82E30013387F82E307B6832
:105210005A6897F82E3013441B78FB8397F82E308A
:10522000013387F82E30FB8B9AB27B68596897F868
:105230002E300B441B781B029BB213439BB29BB2D4
:10524000FB8397F82E30013387F82E307B685A683D
:1052500097F82E3013441B7887F8203097F82E30BB
:10526000013387F82E3007F1080318460021112278
:1052700013F090FD06233B72BA8BFB8BDBB207F178
:105280000801009110460321012200F0C1FA97F8AD
:105290002F30013387F82F3097F8273097F82F20D9
:1052A0009A4295D397F82C30013387F82C3000BF01
:1052B0003B6897F82E201A703037BD4680BD00BF7E
:1052C00080B487B000AFF8607B600B46FB7213467A
:1052D000BB720023FB75FB7ABB75BB7A7B755FE005
:1052E000FA7D13469B0013447A681344FA685168A8
:1052F000BA7D0A4412781A80FA7D13469B00134443
:105300007A68D118FA7D13469B0013447A681344D7
:105310001B889BB29AB2FB685868BB7D013303447B
:105320001B781B029BB213439BB29BB20B80FA7D8E
:1053300013469B0013447A681344FA685168BA7D97
:1053400002320A4412785A80FA7D13469B001344B5
:105350007A68D118FA7D13469B0013447A68134487
:105360005B889BB29AB2FB685868BB7D03330344E9
:105370001B781B029BB213439BB29BB24B80BB7D3D
:105380000433BB757B7D043B7B75FA7D13469B0024
:1053900013447A68134401221A71FB7D0133FB75B3
:1053A0007B7D002B9CD11C37BD465DF8047B70478C
:1053B00080B588B002AF44F64870C2F20000002108
:1053C0004FF4AA7213F0E6FC0023FB820FE0FA8A86
:1053D0001346DB0013449B0044F64872C2F20002FD
:1053E0001344184600F0BAFEFB8A0133FB82FB8AA5
:1053F000082BECD944F64873C2F20003012283F86B
:105400004E2144F64873C2F200030922A3F84A2150
:105410000023BB8207F0E8FA0346002B01D000F01E
:1054200021F8BB8A0133BB823B461846002111227A
:1054300013F0B0FCBB8AFB820BE0FB8A3A46009279
:10544000184604210022002300F0E2F9FB8A013310
:10545000FB82FA8ABB8A03339A42EEDB1837BD46D9
:1054600080BD00BF80B588B002AF0023BB8244F688
:105470004873C2F20003B3F84831002B02D10B206D
:1054800000F028F9012000F043F9012000F054F960
:105490003B4618460021112213F07CFC06233B708A
:1054A000BB8AFB820BE0FB8A3A4600921846032136
:1054B0000122002300F0ACF9FB8A0133FB82FA8A57
:1054C000BB8A01339A42EEDB1837BD4680BD00BF70
:1054D000B0B588B000AF44F64873C2F2000393F849
:1054E00050315A1C44F64873C2F20003B3F84A31F3
:1054F00092FBF3F103FB01F3D31ADAB244F64873DB
:10550000C2F2000383F8502144F64873C2F200034C
:1055100093F850313B7044F64873C2F2000393F89D
:105520005031194644F64872C2F200020B46DB00C5
:105530000B449B0013441B88A7F8013044F64873C2
:10554000C2F2000393F85031194644F64872C2F291
:1055500000020B46DB000B449B0013449B78FB705E
:1055600044F64873C2F2000393F85031194644F6EA
:105570004872C2F200020B46DB000B449B0013444E
:10558000DB783B7144F64873C2F2000393F8503164
:10559000194644F64872C2F200020B46DB000B4487
:1055A0009B0013441B797B7144F64873C2F20003DD
:1055B00093F850311A461346DB0013449B0044F61F
:1055C0004872C2F2000213445A1DBB1D156854688C
:1055D0009068D1681D605C609860D960127C1A7414
:1055E00044F64873C2F2000393F85031194644F66A
:1055F0004872C2F200020B46DB000B449B001344CE
:1056000010339B79FB7544F64873C2F2000393F89C
:105610005031194644F64872C2F200020B46DB00D4
:105620000B449B0013441033DB793B7644F64873FC
:10563000C2F2000393F85031194644F64872C2F2A0
:1056400000020B46DB000B449B00134418331B780D
:105650007B7644F64873C2F2000393F850311A4641
:105660001346DB0013449B0003F1180244F6487311
:10567000C2F2000313445A1C07F11A03116819609F
:1056800012791A713B46062019461F220AF0A2FC25
:10569000012318462037BD46B0BD00BF80B582B09B
:1056A00000AF44F64873C2F2000393F84E313B71E9
:1056B00044F64873C2F2000393F84F317B713B1DEF
:1056C0000720194602220AF085FC012318460837F4
:1056D000BD4680BD80B582B000AF0346FB8010F0B0
:1056E000E7F944F64873C2F20003FA88A3F84821A8
:1056F000FB88092B06D844F64873C2F20003FA88E7
:10570000A3F84A2110F0C8F90837BD4680BD00BF94
:1057100080B582B000AF0346FB7110F0C9F944F6C2
:105720004873C2F20003FA7983F84C2110F0B4F9FF
:105730000837BD4680BD00BF80B582B000AF0346CC
:10574000FB7110F0B5F944F64873C2F20003FA7920
:1057500083F84D2110F0A0F90837BD4680BD00BF89
:1057600080B586B000AF0346B9607A60FB8144F62D
:105770004873C2F200037B611DE07B690533B868A2
:10578000194608F0E7F80346002B11D07B691B8807
:10579000FA899A420CD17B699A787B681A727B6984
:1057A000DA787B685A727B691A797B681A731EE013
:1057B0007B6924337B6144F64873C2F20003B3F87B
:1057C0004A315A1E1346DB0013449B0044F64872CC
:1057D000C2F200021A447B699A42CED27B68002250
:1057E0001A727B6800225A727B6800221A7318377B
:1057F000BD4680BD80B400AF44F64873C2F20003DA
:10580000B3F84A311846BD465DF8047B704700BFC7
:1058100080B586B000AFF88079713A71FB7010F0F6
:1058200047F944F64873C2F200037B6102E07B69EA
:1058300024337B617B699B78002B12D044F648733C
:10584000C2F20003B3F84A315A1E1346DB00134478
:105850009B0044F64872C2F200021A447B699A42E5
:10586000E5D244F64873C2F20003B3F84A315A1E37
:105870001346DB0013449B0044F64872C2F2000258
:105880001A447B699A4209D210F006F90E201721BA
:10589000002200230AF0F6FB012384E07B69FA88EA
:1058A0001A807B697A799A707B693A79DA707B69B8
:1058B000FA781A717B6905331846396A112213F098
:1058C000F3F944F64873C2F20003D3F84431002BD5
:1058D0000AD17B697A691A6244F64873C2F20003FE
:1058E0007A69C3F844215BE044F64873C2F20003CE
:1058F000D3F844313B613B691B6AFB603B691A8802
:105900007B691B889A4205D27B691A88FB681B88D1
:105910009A423FD33B691A887B691B889A4205D219
:10592000FB681A883B691B889A4233D97B691A88BD
:10593000FB681B889A4205D2FB681A883B691B8862
:105940009A4227D93B691A887B691B889A421ED1E3
:105950007B691B880E203F211A4600230AF092FB28
:105960007B6900221A807B6900229A707B69002281
:10597000DA707B6900221A717B69053318460021B1
:10598000112213F007FA10F087F801230BE0FB68EF
:105990003B61B0E73B697A691A627B69FA681A620F
:1059A00010F07AF8002318461837BD4680BD00BFB6
:1059B00080B584B000AF03463960FB8010F078F802
:1059C00044F64873C2F20003FB6011E0FB681B88D9
:1059D000FA889A4209D1FB6805333868194607F0FE
:1059E000B9FF0346002B00D015E0FB682433FB60B1
:1059F00044F64873C2F20003B3F84A315A1E134604
:105A0000DB0013449B0044F64872C2F200021A44C1
:105A1000FB689A42DAD244F64873C2F20003B3F844
:105A20004A315A1E1346DB0013449B0044F6487269
:105A3000C2F200021A44FB689A4209D210F02CF814
:105A40000E202E21002200230AF030FB01233CE02F
:105A5000FB681A6AFB689A420AD1FB6800221A6244
:105A600044F64873C2F200030022C3F8442126E042
:105A700044F64873C2F20003D3F84431BB60BB68FC
:105A80001A6AFB689A420ED100BFFB681A6ABB68AB
:105A90001A6244F64873C2F20003D3F84421FB684B
:105AA0009A420CD103E0BB681B6ABB60E7E7FB6866
:105AB0001A6A44F64873C2F20003C3F84421F86836
:105AC00000F04CFB0FF0E8FF002318461037BD46EE
:105AD00080BD00BF80B584B000AF0346FB800FF0EF
